:100000000C94E2000C9433030C94FF000C945903FD
:100010000C94FF000C94FF000C94FF000C94FF0064
:100020000C94FF000C94FF000C94FF000C94FF0054
:100030000C94FF000C94DC0A0C94FF000C94FF005D
:100040000C94FF000C94FF000C94FF000C94FF0034
:100050000C94FF000C94FF000C94FF000C94FF0024
:100060000C94FF000C94FF0008000000BE9224498D
:10007000123EABAAAA2ABECDCCCC4C3E00000080DA
:10008000BEABAAAAAA3E00000000BF000000803F4D
:100090000000000000084178D3BB4387D1133D190D
:1000A0000E3CC3BD4282AD2B3E68EC8276BED98F3A
:1000B000E1A93E4C80EFFFBE01C4FF7F3F0000007E
:1000C00000006E616E00696E660000407A10F35A9F
:1000D00000A0724E18090010A5D4E80000E8764888
:1000E000170000E40B54020000CA9A3B000000E134
:1000F000F505000080969800000040420F000000C7
:10010000A08601000000102700000000E8030000A6
:1001100000006400000000000A0000000000010070
:10012000000000002C76D888DC674F0823DFC1DF91
:10013000AE59E1B1B796E5E3E453C63AE651997694
:1001400096E8E6C28426EB898C9B62ED407C6FFCCE
:10015000EFBC9C9F40F2BAA56FA5F490055A2AF710
:100160005C936B6CF9676DC11BFCE0E40D47FEF519
:1001700020E6B500D0ED902E030094357705008081
:10018000841E080000204E0A000000C80C333333E0
:10019000330F986E12831141EF8D2114893BE65580
:1001A00016CFFEE6DB18D1844B381BF77C1D901D63
:1001B000A4BBE424203284725E228100C9F124ECC5
:1001C000A1E53D2711241FBECFEFD8E0DEBFCDBF94
:1001D00011E0A0E0B1E0EEE1F8E202C005900D927E
:1001E000A837B107D9F721E0A8E7B1E001C01D9217
:1001F000AB3BB207E1F70E9488040C940D140C94F9
:100200000000ECE7F0E0808180648083EAE7F0E0C2
:100210008081806880838081876080830895ECE797
:10022000F0E090819C7F90839081892B8083EAE726
:10023000F0E080818064808380917A0086FDFCCF2D
:1002400080917800909179000895CF92DF92EF929B
:10025000FF920E940F01BC0180E090E00E946A0CB6
:1002600020E030E040E85AE30E94710D20E030E0E9
:1002700040EA50E40E94710D6B017C019B01AC01CE
:1002800060E070E080EA90E40E94860B9B01AC0184
:10029000C701B6010E94F80B6B017C0160919A01C5
:1002A00070919B01072E000C880B990B0E946C0C1F
:1002B000A70196010E94710D20E030E84BEB54E459
:1002C0000E94860B20E030E44CE156E40E94F80BDB
:1002D0000E94290D26EB35E041E551E40E94870B91
:1002E0009B01AC0160E070E783E795E40E94F80BA6
:1002F00023E333E948E853E40E94860BFF90EF9034
:10030000DF90CF9008952BB130E1839FC00111247D
:100310002F70822B8BB985B1826085B965E070E062
:1003200080E090E00E941E0B85B18D7F85B964E668
:1003300070E080E090E00E941E0B0895CF93C82FDC
:1003400085B1816085B98C2F82958F700E94830161
:100350008C2F8F700E948301CF910895CF93C82F67
:1003600085B18E7F85B98C2F82958F700E94830115
:100370008C2F8F700E948301CF910895813079F086
:1003800018F08230B9F021C08CE00E94AE0164E622
:1003900070E080E090E00E941E0B81E008958DE007
:1003A0000E94AE0164E670E080E090E00E941E0BC7
:1003B00081E008958EE00E94AE0164E670E080E086
:1003C00090E00E941E0B81E0089580E008958AB1BC
:1003D000806F8AB984B1836084B98BB11BB885B151
:1003E0008D7F85B985B18E7F85B960E27EE480E03E
:1003F00090E00E941E0B83E00E94830168E873E195
:1004000080E090E00E941E0B83E00E9483016EE674
:1004100070E080E090E00E941E0B83E00E94830168
:1004200068EB7BE080E090E00E941E0B82E00E947F
:10043000830168EB7BE080E090E00E941E0B88E285
:100440000E94AE0168EB7BE080E090E00E941E0B12
:1004500080E00E94BE0168EB7BE080E090E00E94BB
:100460001E0B81E00E94AE0168EB7BE080E090E033
:100470000E941E0B089581E00E94AE0168E873E1BE
:1004800080E090E00E941E0B81E00895CF93DF93FF
:1004900000D0CDB7DEB7198290E49A83E1E0F0E0B6
:1004A000EC0FFD1FE80FF11D8081860F80680E9410
:1004B000AE0162E370E080E090E00E941E0B0F90BE
:1004C0000F90DF91CF910895CF93C82F8A3019F400
:1004D0008DE00E9464028C2F0E949E0180E090E0DB
:1004E000CF910895DF92EF92FF920F931F93CF93D6
:1004F000DF932132310508F05CC0E9017A01072F52
:10050000D62E182F0E941304811104C00E943104BA
:1005100081E050C060E0812F0E945904811104C025
:100520000E94310481E046C0802F0E947704882316
:1005300029F08D2D0E947704811104C00E9431049E
:1005400081E038C00E942204811104C00E9431045D
:1005500081E030C061E0812F0E945904811113C0F5
:100560000E94310481E026C061E0C701800F911F25
:100570000E943904811104C00E94310481E01AC034
:100580000F5F1F4F02C000E010E0CE010197081777
:10059000190750F360E08E0D9F1D0E9439048111F0
:1005A00004C00E94310481E005C00E94310480E053
:1005B00001C08FEFDF91CF911F910F91FF90EF90CE
:1005C000DF900895DF92EF92FF920F931F93CF93E6
:1005D000DF9321323105F0F5E9018A01E72ED62EAD
:1005E000F82E0E941304811104C00E94310481E09E
:1005F00032C060E08F2D0E945904811104C00E9416
:10060000310481E028C08E2D0E947704882329F0D0
:100610008D2D0E947704811114C00E94310481E065
:100620001AC0F801EE0DFF1D80810E947704811130
:1006300004C00E94310481E00EC08FEFE81AF80A6E
:1006400002C0E12CF12CEC16FD0658F30E94310497
:1006500080E001C08FEFDF91CF911F910F91FF904C
:10066000EF90DF9008951F920F920FB60F92112412
:100670008F939F938DB38E7F8DBB4B990AC08091D2
:10068000820190918301019690938301809382016E
:1006900009C0809182019091830101979093830119
:1006A000809382019F918F910F900FBE0F901F90AA
:1006B00018951F920F920FB60F9211248F939F934C
:1006C000EF93FF93E8E6F0E080818E7F8083809156
:1006D0008001909181010196909381018093800126
:1006E000FF91EF919F918F910F900FBE0F901F90F0
:1006F000189520918001309181018091780190912D
:1007000079012817390769F183B1887080937D01D9
:1007100090917C0189130BC080937C0180917E01B4
:1007200090917F01019690937F0180937E0180914B
:10073000800190918101909379018093780160917B
:10074000000170910101072E000C880B990B0E948B
:100750001E0B8BB381608BBBE8E6F0E0808181608B
:10076000808380917E0190917F0108952091820184
:100770003091830180917A0190917B01281739078C
:10078000C1F0809182019091830190937B018093CD
:100790007A016091000170910101072E000C880B15
:1007A000990B0E941E0B8CB381608CBB8DB3816052
:1007B0008DBB809182019091830108958AB1837FDE
:1007C0008AB984B1877F84B985B1886085B9E8E644
:1007D000F0E0808181608083EBE6F0E080818860DA
:1007E0008083E9E6F0E08081826080838DB3816060
:1007F0008DBB08959B01AC011092B90060E074E2DA
:1008000084EF90E00E94A411DA01C9014097A10988
:10081000B109B695A795979587958093B80084E020
:100820008093BC00089584EA8093BC008091BC0052
:100830008823E4F79091B900987F81E0983009F01F
:1008400080E0089584EA8093BC008091BC008823F6
:10085000E4F79091B900987F81E0903109F080E051
:10086000089584E98093BC008091BC0084FDFCCF96
:100870000895FC01662311F084EC01C084E88093A4
:10088000BC009091BC009923E4F78091BB00808369
:100890002091B900287F30E0662319F040E550E050
:1008A00002C048E550E081E04217530709F080E0BC
:1008B000089590E0880F991F862B8093BB0084E8F1
:1008C0008093BC008091BC008823E4F72091B9009C
:1008D000287F30E0662319F040E450E002C048E190
:1008E00050E081E04217530709F080E008958093BB
:1008F000BB0084E88093BC008091BC008823E4F7AF
:100900009091B900987F81E0983209F080E00895D5
:1009100060EA76E881E090E00E94FA030E94C30852
:100920000E946D0A0E94880881E00E9425010E94B1
:100930008A0A81E00E9425016B017C018090A70159
:100940009090A801A090A901B090AA014090020146
:10095000509003016090040170900501A301920181
:10096000C501B4010E94870B9B01AC01C701B60110
:100970000E941C0D18162CF461E080E00E94CA0849
:1009800017C0A3019201C501B4010E94860B9B010F
:10099000AC01C701B6010E94F30B88232CF460E080
:1009A00081E00E94CA0804C060E080E00E94CA089A
:1009B00060E375E780E090E00E941E0BB8CFCF9215
:1009C000DF92EF92FF920F931F930F2EF6EACF2E36
:1009D000F1E0DF2EF02D0F2EFDE9EF2EF1E0FF2EDE
:1009E000F02D0EEA11E02FE931E04CE951E064EA24
:1009F00071E08EE991E00E94A6091F910F91FF908E
:100A0000EF90DF90CF90089580918E01843089F42B
:100A10008091930190E0019683709078992324F45B
:100A200001978C6F9F6F01968093930110928E01B6
:100A3000089590E0019665E070E00E949011809327
:100A40008E0108958F929F92AF92BF92CF92DF92C4
:100A5000EF92FF920F931F93CF93DF93CDB7DEB743
:100A600027970FB6F894DEBF0FBECDBF0E94B60326
:100A7000909385018093840181E00E942501B62E28
:100A8000A72E982E892ECE0107966C01FE01369670
:100A90007F018E010B5F1F4F9E012C5F3F4FAE0108
:100AA0004D5F5F4FBE016E5F7F4F06970E94A609A4
:100AB00060E080E00E94460205EB11E0F80122812F
:100AC00033811F928FED8F939091AA019F93909104
:100AD000A9019F939091A8019F939091A7019F9343
:100AE0001F928F938F929F92AF92BF9282E291E07A
:100AF0009F938F933F932F930E942D1360E081E08B
:100B00000E944602F8012281338189811F928F93CE
:100B10008A811F928F938B811F928F938E811F9258
:100B20008F938C811F928F9385E391E09F938F9396
:100B30003F932F930E942D1360EE73E984E090E0C1
:100B40000E941E0B0FB6F894DEBF0FBECDBF2796D6
:100B50000FB6F894DEBF0FBECDBFDF91CF911F91CE
:100B60000F91FF90EF90DF90CF90BF90AF909F904C
:100B70008F900895CF93DF930E943B0260E080E066
:100B80000E944602C5EBD1E02A813B814AE050E059
:100B900061E070E08EE491E00E947B1360E081E010
:100BA0000E9446022A813B81809105018F938091AA
:100BB00004018F93809103018F93809102018F93A1
:100BC00089E591E09F938F933F932F930E942D137C
:100BD0008DB79EB708960FB6F8949EBF0FBE8DBF17
:100BE000DF91CF910895CF93DF930E943B0260E0A5
:100BF00080E00E944602C5EBD1E02A813B814CE0B7
:100C000050E061E070E08EE591E00E947B1360E0CF
:100C100081E00E9446022A813B8180919E011F92C1
:100C20008F938091A4011F928F9380919C011F92BA
:100C30008F9380919D011F928F9380919F011F92AE
:100C40008F9385E391E09F938F933F932F930E941F
:100C50002D138DB79EB70E960FB6F8949EBF0FBE9C
:100C60008DBFDF91CF910895CF93DF930E943B0218
:100C700060E080E00E944602C5EBD1E02A813B8122
:100C800049E050E061E070E08BE691E00E947B1368
:100C900060E081E00E9446022A813B8180919B01B5
:100CA0008F9380919A018F9385E791E09F938F9323
:100CB0003F932F930E942D130F900F900F900F9042
:100CC0000F900F90DF91CF910895CF93DF9300D0D5
:100CD00000D0CDB7DEB724E030E0AE014F5F5F4F0C
:100CE000BC0180E50E947202811105C069817A8190
:100CF0008B819C8104C060E070E080E89FEB0F90E6
:100D00000F900F900F90DF91CF910895CF93DF93C5
:100D100000D000D0CDB7DEB7FA0169837A838B8328
:100D20009C8324E030E0AE014F5F5F4FBF0180E560
:100D30000E94E2020F900F900F900F90DF91CF91E1
:100D40000895CF93DF9300D0CDB7DEB79A83898320
:100D500022E030E0AE014F5F5F4F80E50E94E2028B
:100D60000F900F90DF91CF910895823041F1833041
:100D700009F448C081115FC0072E000C880B990B45
:100D80000E946C0C20E030E040E05FE30E94710DB7
:100D90002091A7013091A8014091A9015091AA0189
:100DA0000E94870B6093A7017093A8018093A9010B
:100DB0009093AA0140E050E00E9486060895072E15
:100DC000000C880B990B0E946C0C20E030E040E096
:100DD0005FE30E94710D2091020130910301409167
:100DE0000401509105010E94870B609302017093EA
:100DF0000301809304019093050140E250E00E94BA
:100E000086060895CB01880F991F660F771F660F1E
:100E1000771F660F771F680F791F80919A01909155
:100E20009B01860F971F90939B0180939A0160E42A
:100E300070E00E94A1060895CF93DF9300D0CDB754
:100E4000DEB722E030E0AE014F5F5F4FBC0180E5CE
:100E50000E947202811103C089819A8102C08FEFC2
:100E60009FEF0F900F90DF91CF910895CF93DF9375
:100E7000CDB7DEB72C970FB6F894DEBF0FBECDBF4F
:100E80004F83588769877A878B879C87B90186E06B
:100E9000FE013796DE01119601900D928A95E1F7D9
:100EA00026E030E0AE014F5F5F4F80E50E94E20236
:100EB0002C960FB6F894DEBF0FBECDBFDF91CF9159
:100EC0000895AF92BF92CF92DF92EF92FF920F936D
:100ED0001F93CF93DF9300D000D000D0CDB7DEB703
:100EE0005C019E012D5F3F4F6901CE0102967C019E
:100EF00000E010E022503109AE014C5F5F4FBE01AF
:100F00006B5F7F4F04960E94A60990918E019230EC
:100F100059F128F4992341F09130B1F04EC093304B
:100F200089F19430E9F149C089818A0D8983803241
:100F300018F081E0898304C0811102C08FE18983A8
:100F4000898180939F0139C08A818A0D8A838D307F
:100F500018F081E08A8304C0811102C08CE08A838A
:100F60008A8180939D0129C08C819501280F311DB4
:100F7000C901489668E170E00E9490118C838093CB
:100F80009C011BC08D819501280F311DC901CC9694
:100F90006CE370E00E9490118D838093A4010DC0DA
:100FA0008E819501280F311DC901CC966CE370E04C
:100FB0000E9490118E8380939E01CB80EA8000E096
:100FC00029814C816D818E810E94630920E630E089
:100FD00049815A816B817C818D819E810E94360777
:100FE00026960FB6F894DEBF0FBECDBFDF91CF912E
:100FF0001F910F91FF90EF90DF90CF90BF90AF9037
:101000000895CF93DF93CDB7DEB768970FB6F89406
:10101000DEBF0FBECDBF26E030E0AE01495F5F4FBF
:10102000BC0180E50E947202811113C086E0FE01BE
:101030003796DE011D9601900D928A95E1F786E0C4
:10104000FE013D96DE01119601900D928A95E1F721
:101050000EC0FE01739686E0DF011D928A95E9F7C6
:1010600086E0DE01119601900D928A95E1F72981C3
:101070003A814B815C816D817E8180E090E0689651
:101080000FB6F894DEBF0FBECDBFDF91CF910895AC
:10109000CF93DF9300D000D000D0CDB7DEB780E093
:1010A00090E00E9465066093A7017093A801809369
:1010B000A9019093AA0180E290E00E9465066093E6
:1010C000020170930301809304019093050180E471
:1010D00090E00E941C0790939B0180939A0180E608
:1010E00090E00E9401087093A2016093A5015093C3
:1010F000A0012093AC013093AF014093AD0126963F
:101100000FB6F894DEBF0FBECDBFDF91CF9108952B
:10111000CF92EF920F930E9401010E94F30A41E0E7
:1011200060E080E096E90E94C00860E076E980E037
:1011300090E00E94FA030E9448080E94540981E04E
:101140000E94390A0E94E7010E94DE03C090AD01AF
:10115000E090AF010091A3012091AC014091A0016A
:101160006091A5018091A2010E94630986E091E04F
:101170009093B8018093B7010F91EF90CF900895AD
:101180000E94460B089587B18C6087B988B18C6046
:1011900088B90895CF92DF92EF92FF920F931F9339
:1011A000CF93DF93C82FD62F0E94050BDD2331F19B
:1011B000C11124C000918A0110918B0120918C01F2
:1011C00030918D016B017C01C01AD10AE20AF30A49
:1011D00040E4C41642E4D4064FE0E406F10470F0A3
:1011E00028B12B7F28B928B1286028B960938A01DB
:1011F00070938B0180938C0190938D01CC2331F1FE
:10120000D11124C00091860110918701209188019D
:10121000309189016B017C01C01AD10AE20AF30AFC
:1012200040E4C41642E4D4064FE0E406F10470F052
:1012300028B1277F28B928B1246028B96093860196
:10124000709387018093880190938901C11105C033
:10125000D11103C088B18C6088B9DF91CF911F9103
:101260000F91FF90EF90DF90CF9008959DEC899FB4
:10127000912D1124969596959695392F330F232FFE
:10128000220F220F230F821B20E1929F800D112439
:101290000895982F92959F70990F292F220F220F52
:1012A000920F8F70890F08950E94130460E088E602
:1012B0000E94590480E00E9477048FE70E9477041F
:1012C0000E9431040895CF92EF92FF920F931F93E3
:1012D000CF93DF93F82E162FD42FC22F0E94130422
:1012E00060E088E60E94590480E00E9477048F2D18
:1012F0000E9436098F770E947704812F0E94360959
:101300000E9477048D2F0E9436098F7B0E947704FC
:101310008C2F0E9436090E947704802F0E94360984
:101320000E9477048E2D0E9436090E9477048C2D2E
:101330000E9436090E9477040E943104DF91CF9108
:101340001F910F91FF90EF90CF9008954F925F9271
:101350006F927F928F929F92AF92BF92CF92DF92C5
:10136000EF92FF920F931F93CF93DF93CDB7DEB72A
:1013700027970FB6F894DEBF0FBECDBF3C014B01DF
:101380005A0129010E94130460E088E60E94590472
:1013900080E00E9477040E94220461E088E60E94B7
:1013A000590419821A821B821C821D821E821F828E
:1013B00061E0CE0101960E94390461E0CE010296FF
:1013C0000E94390461E0CE0103960E94390461E075
:1013D000CE0104960E94390461E0CE0105960E9478
:1013E000390461E0CE0106960E94390460E0CE0126
:1013F00007960E9439040E94310489818F770E94E8
:101400004909F30180838A810E944909F40180839C
:101410008B818F730E944909F50180838C810E9422
:101420004909F20180838D810E944909F801808376
:101430008E810E944909F70180838F810E944909AA
:10144000F601808327960FB6F894DEBF0FBECDBF9E
:10145000DF91CF911F910F91FF90EF90DF90CF9090
:10146000BF90AF909F908F907F906F905F904F90C4
:101470000895CF93843089F018F4813031F00BC097
:10148000883029F0803229F006C0C0E107C0C2E1EF
:1014900005C0C3E103C0C0E801C0C1E10E9413045C
:1014A00060E088E60E94590487E00E9477048C2F50
:1014B0000E9477040E9431048AB18F7E8AB9E9E6DE
:1014C000F0E080818260808380818E7F80838DB315
:1014D00081608DBB7894CF9108950E94DE030E94B5
:1014E000B6039093900180938F010895813049F065
:1014F00028F0823049F0833051F008950E9422058F
:1015000008950E94F30508950E94BA0508950E9467
:1015100034060895EF92FF920F931F93CF93DF93BA
:101520000E9479037C010E94B603EC0180918F0137
:10153000909190018E01081B190B8091910190915F
:101540009201E816F906D9F0F0929201E092910129
:1015500080919301813019F40E94040510C00E940B
:10156000DF048091930190E0019683709078992335
:1015700024F401978C6F9F6F01968093930101155E
:10158000110579F080919301813021F4C8010E9406
:10159000610703C0B8010E94B506D0939001C093C3
:1015A0008F01809193010E94760ADF91CF911F9164
:1015B0000F91FF90EF9008951F920F920FB60F9228
:1015C00011248F939F938091980190919901019696
:1015D00090939901809398019F918F910F900FBEE6
:1015E0000F901F901895109285001092840083E050
:1015F00086BBE1E8F0E0808182608083EFE6F0E086
:101600008081816080837894089520919801309141
:101610009901AFEFBFEF0E94E51120918400309156
:101620008500DC01CB01820F931FA11DB11DBC0100
:10163000CD0196958795779567950895CF92DF921E
:10164000EF92FF926B017C010E94050BC60ED71E24
:10165000E81EF91EC0929401D0929501E092960185
:10166000F09297010E94050BC0909401D0909501D3
:10167000E0909601F09097016C157D058E059F0511
:1016800088F3FF90EF90DF90CF9008959C0140E0A9
:1016900050E060E472E48FE090E00E94C6112150B7
:1016A00031093093C5002093C400E0ECF0E0808164
:1016B0008D7F8083E2ECF0E0808184608083808194
:1016C000826080838081877F8083E1ECF0E080818D
:1016D0008861808384E191E09093B8018093B701A1
:1016E00008959091C00095FFFCCF8093C6000895A7
:1016F000CF93C82F8A3019F48DE00E94780B8C2F7D
:101700000E94710B80E090E0CF9108955058BB2764
:10171000AA270E949E0B0C94E20C0E94D40C38F075
:101720000E94DB0C20F039F49F3F19F426F40C944E
:10173000D10C0EF4E095E7FB0C94CB0CE92F0E9442
:10174000F30C58F3BA17620773078407950720F064
:1017500079F4A6F50C94150D0EF4E0950B2EBA2F26
:10176000A02D0B01B90190010C01CA01A0011124A7
:10177000FF27591B99F0593F50F4503E68F11A1653
:10178000F040A22F232F342F4427585FF3CF4695E4
:1017900037952795A795F0405395C9F77EF41F1606
:1017A000BA0B620B730B840BBAF09150A1F0FF0FD0
:1017B000BB1F661F771F881FC2F70EC0BA0F621FBC
:1017C000731F841F48F4879577956795B795F795AC
:1017D0009E3F08F0B0CF9395880F08F09927EE0F41
:1017E0009795879508950E94A70C08F481E00895C5
:1017F0000E940C0C0C94E20C0E94DB0C58F00E942E
:10180000D40C40F029F45F3F29F00C94CB0C51111B
:101810000C94160D0C94D10C0E94F30C68F39923D0
:10182000B1F3552391F3951B550BBB27AA276217DC
:101830007307840738F09F5F5F4F220F331F441FE9
:10184000AA1FA9F335D00E2E3AF0E0E832D091501D
:101850005040E695001CCAF72BD0FE2F29D0660F0A
:10186000771F881FBB1F261737074807AB07B0E84D
:1018700009F0BB0B802DBF01FF2793585F4F3AF053
:101880009E3F510578F00C94CB0C0C94160D5F3FE5
:10189000E4F3983ED4F3869577956795B795F795D9
:1018A0009F5FC9F7880F911D9695879597F90895C1
:1018B000E1E0660F771F881FBB1F6217730784075D
:1018C000BA0720F0621B730B840BBA0BEE1F88F76C
:1018D000E0950895E89409C097FB3EF490958095B3
:1018E000709561957F4F8F4F9F4F9923A9F0F92FE6
:1018F00096E9BB279395F695879577956795B79564
:10190000F111F8CFFAF4BB0F11F460FF1BC06F5F49
:101910007F4F8F4F9F4F16C0882311F096E911C05B
:10192000772321F09EE8872F762F05C0662371F07C
:1019300096E8862F70E060E02AF09A95660F771F90
:10194000881FDAF7880F9695879597F90895990F6C
:101950000008550FAA0BE0E8FEEF16161706E80779
:10196000F907C0F012161306E407F50798F0621B9A
:10197000730B840B950B39F40A2661F0232B242B6F
:10198000252B21F408950A2609F4A140A6958FEF8E
:10199000811D811D089597F99F6780E870E060E0E0
:1019A00008959FEF80EC089500240A9416161706F8
:1019B00018060906089500240A9412161306140640
:1019C00005060895092E0394000C11F4882352F0A3
:1019D000BB0F40F4BF2B11F460FF04C06F5F7F4F5B
:1019E0008F4F9F4F089557FD9058440F551F59F042
:1019F0005F3F71F04795880F97FB991F61F09F3FFC
:101A000079F087950895121613061406551FF2CF24
:101A10004695F1DF08C0161617061806991FF1CF74
:101A200086957105610508940895E894BB2766279B
:101A30007727CB0197F908950E94A70C08F48FEF40
:101A4000089516F00C94DE0D0C94D10C68940C944F
:101A5000CB0C0E94FB0CA8F39923C1F3AEF3DF93E8
:101A6000CF931F930F93FF92C92FDD2788232AF06E
:101A70002197660F771F881FDAF720E030E040E8F3
:101A80005FEB9FE3883920F0803E38F021968F7716
:101A90000E94870BE8E6F0E004C00E94870BE5E9AE
:101AA000F0E00E94EC0D8B01BE01EC01FB2E6F57A4
:101AB00071097595771F880B990B0E946C0C28E1B2
:101AC00032E741E35FE30E94840DAF2D9801AE0140
:101AD000FF900F911F91CF91DF910E949E0B0C946C
:101AE000E20C0E94840D0C94E20C0E94D40C38F09D
:101AF0000E94DB0C20F0952311F00C94CB0C0C947D
:101B0000D10C11240C94160D0E94F30C70F3959FC8
:101B1000C1F3950F50E0551F629FF001729FBB27E4
:101B2000F00DB11D639FAA27F00DB11DAA1F649F80
:101B30006627B00DA11D661F829F2227B00DA11D33
:101B4000621F739FB00DA11D621F839FA00D611DB9
:101B5000221F749F3327A00D611D231F849F600DDA
:101B6000211D822F762F6A2F11249F5750409AF003
:101B7000F1F088234AF0EE0FFF1FBB1F661F771F8F
:101B8000881F91505040A9F79E3F510580F00C945A
:101B9000CB0C0C94160D5F3FE4F3983ED4F386957E
:101BA00077956795B795F795E7959F5FC1F7FE2BFA
:101BB000880F911D9695879597F908959F3F31F06D
:101BC000915020F4879577956795B795880F911D6B
:101BD0009695879597F90895DF93CF931F930F9369
:101BE000FF92EF92DF927B018C01689406C0DA2E9F
:101BF000EF010E94840DFE01E894A5912591359195
:101C000045915591A6F3EF010E949E0BFE019701AD
:101C1000A801DA9469F7DF90EF90FF900F911F9180
:101C2000CF91DF910895A0E1B0E0E9E1FEE00C94EE
:101C3000F4117C011B016A01FC0117821682838169
:101C400081FF44C39E012F5F3F4F3901F70193810C
:101C5000F10193FD859193FF81911F01882309F480
:101C600031C3853239F493FD859193FF81911F0132
:101C7000853239F4B70190E00E943F1356016501A7
:101C8000E5CF10E0512C912CFFE1F915D8F08B3203
:101C900079F038F4803279F08332A1F4F92DF061D3
:101CA0002EC08D3261F0803369F4292D21602DC062
:101CB000392D3260932E892D8460982E2AC0E92D0B
:101CC000E86015C097FC2DC020ED280F2A3088F45D
:101CD00096FE06C03AE0139F200D1124122F19C062
:101CE0008AE0589E200D1124522EE92DE0629E2E8E
:101CF00010C08E3231F496FCE5C2F92DF0649F2EAF
:101D000008C08C3621F4292D2068922E02C0883616
:101D100041F4F10193FD859193FF81911F018111A0
:101D2000B3CF9BEB980F933020F4992D9061805E98
:101D300007C09BE9980F933008F066C1992D9F7EEC
:101D400096FF16E09F73992E853619F49064992EAC
:101D500008C0863621F4392F3068932E02C0111145
:101D6000115097FE07C01C3350F444244394410E95
:101D700027E00BC0183038F027E017E005C027E057
:101D80009CE3492E02C0212F412C560184E0A80E6D
:101D9000B11CF6016081718182819381042DA301C0
:101DA0000E943F126C01F981FC87F0FF02C0F3FF33
:101DB00006C091FC06C092FE06C000E205C00DE21E
:101DC00003C00BE201C000E08C858C7019F001119A
:101DD0005AC29BC297FE10C04C0CFC85F4FF04C095
:101DE0008A81813309F44A94141474F528E0241587
:101DF00078F588E0482E2CC096FC2AC0812F90E010
:101E00008C159D059CF03CEFC3163FEFD30674F094
:101E1000892D8068982E0AC0E2E0F0E0EC0FFD1FEB
:101E2000E10FF11D8081803319F411501111F4CFAD
:101E300097FE0EC044244394410E812F90E0C816B3
:101E4000D9062CF41C1904C04424439401C010E0AA
:101E500097FE06C01C141D0434F4C601019605C08B
:101E600085E090E002C081E090E00111019611232D
:101E700031F0212F30E02F5F3F4F820F931F252D30
:101E800030E08217930714F4581A01C0512C892DA1
:101E9000897049F4552039F0B70180E290E00E9442
:101EA0003F135A94F7CF002329F0B701802F90E019
:101EB0000E943F1393FC09C0552039F0B70180E31D
:101EC00090E00E943F135A94F7CF97FE4CC0460112
:101ED000D7FE02C0812C912CC60188199909F30103
:101EE000E80FF91FFE87ED87960124193109388B19
:101EF0002F87012F10E01195019511093FEF8316EF
:101F0000930629F4B7018EE290E00E943F13C814B3
:101F1000D9044CF08F8598898815990524F4ED85AE
:101F2000FE85818101C080E3F1E08F1A91082D8543
:101F30003E852F5F3F4F3E872D87801691062CF000
:101F4000B70190E00E943F13D9CFC814D90441F4DF
:101F50009A81963320F4953319F43C8534FF81E35C
:101F6000B70190E04EC08A81813319F09C859F7E35
:101F70009C87B70190E00E943F13111105C094FCAB
:101F800018C085E690E017C0B7018EE290E00E948D
:101F90003F131E5F82E001E0080FF301E80FF11D1F
:101FA0008081B70190E00E943F13802F0113F3CF8F
:101FB000E6CF85E490E0B7010E943F13D7FC06C04E
:101FC000C114D10441F4EC85E4FF05C0D194C1945F
:101FD000D1088DE201C08BE2B70190E00E943F136F
:101FE00080E32AE0C216D1042CF08F5FFAE0CF1A0A
:101FF000D108F7CFB70190E00E943F13B701C601A7
:10200000C0960E943F1354C1833631F0833779F074
:10201000833509F056C020C0560132E0A30EB11C32
:10202000F6018081898301E010E0630112C056014E
:10203000F2E0AF0EB11CF601C080D18096FE03C065
:10204000612F70E002C06FEF7FEFC6010E94221384
:102050008C01F92DFF7714C0560122E0A20EB11CAD
:10206000F601C080D18096FE03C0612F70E002C0EF
:102070006FEF7FEFC6010E9417138C01F92DF068F6
:102080009F2EF3FD1AC0852D90E008171907A8F4BC
:10209000B70180E290E00E943F135A94F4CFF6011A
:1020A00097FC859197FE81916F01B70190E00E94A6
:1020B0003F1351105A94015011090115110579F778
:1020C000F7C0843611F0893661F5560197FE09C0D4
:1020D00024E0A20EB11CF60160817181828193819E
:1020E0000AC0F2E0AF0EB11CF60160817181072ECB
:1020F000000C880B990BF92DFF769F2E97FF09C0D6
:1021000090958095709561957F4F8F4F9F4FF068A8
:102110009F2E2AE030E0A3010E94AF13C82EC618FC
:102120003FC0092D853721F40F7E2AE030E01DC025
:10213000097F8F3691F018F4883559F0C3C0803785
:1021400019F0883711F0BEC0006104FF09C00460B7
:1021500007C094FE08C0066006C028E030E005C055
:1021600020E130E002C020E132E0560107FF09C063
:1021700084E0A80EB11CF601608171818281938197
:1021800008C0F2E0AF0EB11CF6016081718180E001
:1021900090E0A3010E94AF13C82EC6180F77902EAF
:1021A00096FE0BC0092D0E7FC11650F494FE0AC096
:1021B00092FC08C0092D0E7E05C0DC2C092D03C041
:1021C000DC2C01C0D12E04FF0DC0FE01EC0DF11D71
:1021D0008081803311F4097E09C002FF06C0D394C8
:1021E000D39404C0802F867809F0D39403FD11C0E6
:1021F00000FF06C01C2DD51480F4150D1D190DC04F
:10220000D51458F4B70180E290E00E943F13D394B4
:10221000F7CFD51410F45D1801C0512C04FF10C085
:10222000B70180E390E00E943F1302FF17C001FD59
:1022300003C088E790E002C088E590E0B7010CC0D9
:10224000802F867859F001FF02C08BE201C080E246
:1022500007FD8DE2B70190E00E943F13C11638F4EC
:10226000B70180E390E00E943F131150F7CFCA946A
:10227000F301EC0DF11D8081B70190E00E943F1346
:10228000C110F5CF15C0F4E0F51560F584E0581ADB
:1022900093FE1FC0011127C02C8523FF2AC002EC2A
:1022A00010E0392D3071932EF8018491811124C0F2
:1022B000552009F4E4CCB70180E290E00E943F137E
:1022C0005A94F6CFF7018681978126C08FEF9FEF52
:1022D00023C0B70180E290E00E943F135A9451104E
:1022E000F8CFD8CF512CB701802F90E00E943F1338
:1022F000D3CF06EC10E0D5CF91108052B70190E01B
:102300000E943F130F5F1F4FCFCF23E0251510F41E
:1023100083E0BDCF512CC0CF6096E2E10C94101247
:1023200097FB072E16F4009407D077FD09D00E9482
:102330002B1207FC05D03EF4909581959F4F089590
:10234000709561957F4F0895A1E21A2EAA1BBB1BC1
:10235000FD010DC0AA1FBB1FEE1FFF1FA217B30771
:10236000E407F50720F0A21BB30BE40BF50B661F87
:10237000771F881F991F1A9469F76095709580954B
:1023800090959B01AC01BD01CF010895052E97FBEF
:102390001EF400940E94DD1157FD07D00E94A41185
:1023A00007FC03D04EF40C94DD1150954095309508
:1023B00021953F4F4F4F5F4F0895909580957095B1
:1023C00061957F4F8F4F9F4F0895A29FB001B39F9C
:1023D000C001A39F700D811D1124911DB29F700D2E
:1023E000811D1124911D08952F923F924F925F926B
:1023F0006F927F928F929F92AF92BF92CF92DF9215
:10240000EF92FF920F931F93CF93DF93CDB7DEB779
:10241000CA1BDB0B0FB6F894DEBF0FBECDBF09940D
:102420002A88398848885F846E847D848C849B8464
:10243000AA84B984C884DF80EE80FD800C811B8172
:10244000AA81B981CE0FD11D0FB6F894DEBF0FBEA1
:10245000CDBFED010895AA1BBB1B51E107C0AA1F08
:10246000BB1FA617B70710F0A61BB70B881F991F35
:102470005A95A9F780959095BC01CD010895283013
:1024800008F027E03327DA01990F311D87FD9160AD
:1024900000966105710539F432602E5F3D9330E39B
:1024A0002A95E1F708959F3F30F080387105610566
:1024B00009F03C5F3C5F3D93913008F08068911DCE
:1024C000DF93CF931F930F93FF92EF92192F987F73
:1024D0009695E92F96959695E90FFF27EC5DFE4FAF
:1024E00099273327EE24FF24A701E70105900894DC
:1024F000079428F4360FE71EF81E491F511D660F7A
:10250000771F881F991F0694A1F70590079428F458
:10251000E70EF81E491F561FC11D770F881F991F10
:10252000661F0694A1F70590079428F4F80E491F3A
:10253000561FC71FD11D880F991F661F771F06944E
:10254000A1F70590079420F4490F561FC71FD81F05
:10255000990F661F771F881F0694A9F7849110951D
:10256000177041F0D695C79557954795F794E7941E
:102570001A95C1F7EAECF0E0689415901591359141
:102580006591959105907FE27395E118F10A430BEF
:10259000560BC90BD009C0F7E10CF11E431F561FA3
:1025A000C91FD01D7EF4703311F48A95E6CFE894EC
:1025B000015030F0080F0AF40027021708F4202F0A
:1025C0002395022F7A3328F079E37D932A95E9F752
:1025D00010C07D932A9589F606949795679537954F
:1025E00017951794E118F10A430B560BC90BD00944
:1025F00098F023957E9173957A3308F070E37C937D
:102600002013B8F77E9170617D9330F0839571E36C
:102610007D9370E32A95E1F71124EF90FF900F91DD
:102620001F91CF91DF91992787FD90950895FC0127
:102630000590615070400110D8F7809590958E0FED
:102640009F1F0895FC016150704001900110D8F760
:10265000809590958E0F9F1F0895A0E0B0E0E3E372
:10266000F3E10C940412AE01475F5F4F6F817885F0
:102670008D819E810E94130EE2E00C9420120F9334
:102680001F93CF93DF93FB01238121FD03C08FEFC5
:102690009FEF2CC022FF16C04681578124813581CF
:1026A0004217530744F4A081B1819D012F5F3F4F32
:1026B000318320838C93268137812F5F3F4F37836F
:1026C000268314C08B01EC01FB010084F185E02D11
:1026D0000995892BE1F6D80116968D919C91179753
:1026E000019617969C938E931697CE01DF91CF910A
:1026F0001F910F910895A0E0B0E0E1E8F3E10C94A0
:10270000FA115B014A017901D90113962C9121FF3D
:102710001DC0C0E0D0E0C815D905D9F08C016C010E
:10272000CA0CDB1CC8010C151D0571F00F5F1F4F93
:10273000D7011896ED91FC911997B701DC018C91A6
:102740000995892B79F305C02196E5CF80E090E0CB
:1027500001C0CE01CDB7DEB7ECE00C941612FA0141
:10276000AA27283051F1203181F1E8946F936E7FD0
:102770006E5F7F4F8F4F9F4FAF4FB1E03ED0B4E0C1
:102780003CD0670F781F891F9A1FA11D680F791F02
:102790008A1F911DA11D6A0F711D811D911DA11D13
:1027A00020D009F468943F912AE0269F1124301923
:1027B000305D3193DEF6CF010895462F4770405DBE
:1027C0004193B3E00FD0C9F7F6CF462F4F70405D6D
:1027D0004A3318F0495D31FD4052419302D0A9F7C8
:1027E000EACFB4E0A6959795879577956795BA95C2
:1027F000C9F700976105710508959B01AC010A2E88
:1028000006945795479537952795BA95C9F7620F5E
:0E281000731F841F951FA01D0895F894FFCF1D
:10281E00204E0000803F0000000200000000640215
:10282E00000000000000000200000000780B000015
:10283E000000252E3166256343203D3E20252E3196
:10284E006625634300253032642F253032642025FF
:10285E003032643A253032643A2530326400487999
:10286E0073746572657A653A00252E31660044618F
:10287E0074756D2061206361733A004B616C6962FF
:08288E0072616365002564001E
:00000001FF
